:020000040800F2
:100000003802002045010008810A0008ED060008BA
:100010007D0A0008F3030008FB150008000000003B
:100020000000000000000000000000004B0F00086E
:100030006105000800000000350B000831100008C1
:100040005F0100085F0100085F0100085F01000810
:100050005F0100085F0100085F0100085F01000800
:100060005F0100085F0100085F0100085F010008F0
:100070005F0100085F0100085F0100085F010008E0
:100080005F0100085F0100085F0100085F010008D0
:100090005F0100085F0100085F0100085F010008C0
:1000A0005F0100085F0100085F0100085F010008B0
:1000B0005F010008391100085F0100085F010008B6
:1000C0005F0100085F0100085F0100085F01000890
:1000D0005F010008C9120008211300085F01000831
:1000E0005F0100085F0100085F0100085F01000870
:1000F0005F0100085F0100085F0100085F01000860
:100100005F0100085F0100085F0100085F0100084F
:100110005F0100085F0100085F0100085F0100083F
:100120005F0100085F0100085F0100085F0100082F
:10013000DFF80CD000F0F8F8004800470519000877
:10014000380200200648804706480047FEE7FEE7E1
:10015000FEE7FEE7FEE7FEE7FEE7FEE7FEE7FEE777
:10016000D9100008310100080649074A08685043C1
:1001700043F23902104408604008704701490860A2
:10018000704700005C0000206D4EC64180EA01020D
:1001900010B502F00043400026D04A0023D04FEAB9
:1001A000106101EB1261C0F35600C2F3560240F435
:1001B000000042F40002A0FB0220A1F17F014FEAFF
:1001C0000040140401D000F1010050EA124001D4B3
:1001D0004000491EC2B20C0604EBD010401C40087F
:1001E000802A02D003E0002010BD20F00100002989
:1001F00000DA0020184310BD30B480EA010202F09A
:10020000004530F0004221F0004015D0A0B1C0F30D
:10021000C753C2F3C754C2F31601C0F31600E41A61
:1002200041F4000140F400027D34914201D3641C8A
:1002300000E04900002C02DA30BC002070474FF487
:1002400000000023914201D3891A034340084FEA7A
:100250004101F7D151B1914202D14FF0004105E087
:1002600002D24FF0010101E06FF0010103EBC45035
:10027000284430BC00F022B8C10F80EAE070084486
:10028000CA079623002100F022B800F0004220F0B7
:100290000040C10DC0F3160040F400007F2901DAD0
:1002A00000207047962903DCC1F19601C84001E0A7
:1002B00096398840002AF4D0404270470029A8BFF0
:1002C0007047401C490008BF20F00100704710B47F
:1002D000B0FA80FC00FA0CF050EA010404BF10BC34
:1002E000704749B1CCF1200421FA04F411FA0CF161
:1002F00018BF012121430843A3EB0C01CB1D0106CC
:10030000000A002BBEBF002010BC704700EBC3509A
:1003100010440029A4BF10BC7047401C490008BF0E
:1003200020F0010010BC7047064C074D06E0E06865
:1003300040F0010394E8070098471034AC42F6D32C
:10034000FFF7FAFE0C1C00082C1C000810B5014633
:100350001548C07E142802DA1348C07E00E014203D
:1003600002461248124B1B7850F82300114B1B68B1
:10037000181A104B186018460068084418600C489A
:1003800003780078401C0A4C2070084840F823107D
:1003900020460078904202D100202346187005487C
:1003A000006890FBF2F010BDA0000020C00000200B
:1003B00040000020440000202DE9F04105460F4692
:1003C0009046002411E015F814604FF6FF7000EA23
:1003D0000626012000EB4400285C06433919C8B208
:1003E000314600F065F8601CC4B24445EBDBBDE863
:1003F000F08100BFFEE701460A784FF6FF7000EA81
:100400000222487810430246704700000146102936
:1004100049D2DFE801F0080C13171B1F23272B2FED
:1004200036393C3F4245214A128890B23BE01F4A90
:1004300012684FF6FF7303EA224034E01B4A9288A9
:1004400090B230E0194A5268100C2CE0174A128919
:1004500090B228E0154A9268100C24E0134A928961
:1004600090B220E0114AD268100C1CE00F4A128AA8
:1004700090B218E00D4A12694FF6FF7303EA22406A
:1004800011E00A4A907E0EE0084A908A0BE0074A83
:10049000D07E08E0054A107F05E0044AD08A02E0D9
:1004A000024A108B00BF00BF70470000A000002070
:1004B000021F0C2A50D2DFE802F006091417222589
:1004C00030333646494C254A916045E0234A12892B
:1004D00092B2224B9A601A46926842EA01429A60AE
:1004E0003AE01E4AD16037E01C4A928992B21B4B17
:1004F000DA601A46D26842EA0142DA602CE0174A12
:10050000116129E0154A128A92B2144B1A611A46F7
:10051000126942EA01421A611EE0104B99761BE013
:100520000E4A918218E00D4BD9761A46D27E012AE6
:1005300001DA0122DA76094AD27E322A02DD32223B
:10054000064BDA7608E0054B197705E0034AD182BD
:1005500002E0024A118300BF00BF7047A0000020E4
:10056000704700000549096821F01001034A116035
:1005700011460968014311607047000000200240E5
:1005800000210A4A1170002006E009490968094A59
:1005900042F82010411CC8B21428F6DB0649C97E77
:1005A000034A12685143054A116070474000002019
:1005B00038000020C0000020A000002044000020DF
:1005C0002DE9F041024600250026002000230024EA
:1005D000002791F803C00CF00F0591F803C01CF040
:1005E000100F03D091F802C04CEA050591F800C045
:1005F000BCF1000F31D0146800202BE04FF0010C4B
:100600000CFA00F3B1F800C00CEA03069E4220D1B8
:1006100083004FF00F0C0CFA03F7BC4305FA03FC00
:100620004CEA040491F803C0BCF1280F06D14FF046
:10063000010C0CFA00FCC2F814C00AE091F803C0E7
:10064000BCF1480F05D14FF0010C0CFA00FCC2F8C8
:1006500010C0401C0828D1D31460B1F800C0BCF110
:10066000FF0F34DD546800202EE000F1080C4FF03D
:10067000010808FA0CF3B1F800C00CEA03069E4228
:1006800021D183004FF00F0C0CFA03F7BC4305FA9D
:1006900003FC4CEA040491F803C0BCF1280F05D117
:1006A00000F1080C08FA0CF8C2F8148091F803C0A5
:1006B000BCF1480F07D100F1080C4FF0010808FA0F
:1006C0000CF8C2F81080401C0828CED35460BDE856
:1006D000F0810246002093680B4201D0012000E027
:1006E00000207047416170470161704700BFFEE71D
:1006F00010B504461948007830B101280AD0022804
:1007000017D0032827D102E001F05FF923E001F0C0
:100710005CF920E00020124908700878411C104A5A
:10072000117010490C5402200C49087001F04DF969
:1007300011E00B480078402807DA09490878411C85
:10074000074A117007490C5402E00320034908705E
:1007500001F03BF900BF00BF10BD00001D000020EC
:100760001E0000206000002010B50C48007820B169
:10077000022806D0032809D107E0002008490870A4
:1007800004E001200649087000E000BF00BF01F04E
:1007900017F901200149087010BD00001D0000205C
:1007A0001C00002030B58BB02F4800782F49097805
:1007B000884257D12C48801CFFF71DFE05462A4869
:1007C000001DFFF718FE044627484078032802D092
:1007D000102846D11EE0002D1BDB122D19DA122C39
:1007E00017DA224800788DF8040003208DF8050000
:1007F0006006000E8DF80600E2B2E9B20DF10700C6
:1008000000F08AFB032000EB4400C1B201A800F015
:1008100059F826E0002D23DB122D21DA122C1FDAE5
:10082000E2B2E9B21048C01DFFF7C6FD0120104931
:1008300008700E4800788DF8040010208DF805002F
:10084000280A8DF80600E8B28DF80700200A8DF816
:100850000800E0B28DF80900062101A800F032F886
:1008600000BF00BF0BB030BD600000201F000020A3
:100870002000002010B50F48007820B1012803D0D7
:10088000032814D112E012E00B4800780B490978D4
:10089000884207D10A480178074801F075F808B97D
:1008A000FFF780FF00200349087000E000BF00BF91
:1008B00010BD00001C000020600000201F00002070
:1008C0001E0000202DE9F04104460D462946204631
:1008D00001F05AF807462846691CCDB227543A124F
:1008E0002846691CCDB2225400260BE00748007848
:1008F000012803D1A05D00F00BF801E0BDE8F08114
:10090000701C86B2AE42F1DB00BFF7E71D0000208D
:1009100010B504460121204601F010F810BD00007A
:10092000034908700021034A1170034A117070478F
:100930001F0000201D0000201C00002010B50446F0
:100940003CB104210548FFF7CFFE0A2000F0B2FEBB
:1009500002E00A2000F0AEFE10BD000000100140D1
:1009600070B534480078012803D100F057FEFFF736
:1009700007FE31480068401C2F490860084600689F
:10098000B0F5FA7F14D900200860012000F040FA89
:100990002A494860486800F40001B1F5000F01D110
:1009A000411EC84300BF0446FFF7D0FC244908603D
:1009B00024480068401C234908600846006841F24A
:1009C0008831884235D900201E4908601C490968D1
:1009D0001D4A1268881AFFF74FFC05461B4801683C
:1009E0002846FFF7D3FB0446FFF74FFC1349086086
:1009F0000968174A1268881A002800DA404281B252
:100A00000E48008B814203DA114800680B490860E8
:100A10000A490868002800DA404281B20748C08AC3
:100A2000814202DA0020054908600448006808494C
:100A3000086070BD2000002024000020A0000020DD
:100A400038000020280000203C0000202C0000205E
:100A50003400002010B500200549086005490870E1
:100A60000549086000F0DAFDFFF78AFD10BD0000BF
:100A700028000020300000203400002000BFFEE7E6
:100A80007047000070B5002100230F22C4780CB31A
:100A9000164C246804F4E064C4F5E064210AC1F152
:100AA0000403CA40447804FA03F1847814402143D3
:100AB00009010F4C0678A155047804F01F050124A4
:100AC000AC4005786D114FF0E02606EB8505C5F8C2
:100AD000004109E0047804F01F050124AC40054DF5
:100AE0000678761145F8264070BD00000CED00E058
:100AF00000E400E080E100E002490143024A1160A5
:100B0000704700000000FA050CED00E008B54FF456
:100B1000A060FFF7F1FF25208DF8000000208DF880
:100B200001008DF8020001208DF803006846FFF7F0
:100B3000A9FF08BD7047000029B1064AD2690243E7
:100B4000044BDA6104E0034AD2698243014BDA6163
:100B5000704700000010024029B1064A12690243A2
:100B6000044B1A6104E0034A12698243014B1A6183
:100B7000704700000010024029B1064A9269024302
:100B8000044B9A6104E0034A92698243014B9A61E3
:100B9000704700000010024029B1064AD2680243A3
:100BA000044BDA6004E0034AD2688243014BDA6006
:100BB000704700000010024010B500F019F84FF423
:100BC000803000F0C3F800F007F901280DD11020A3
:100BD000FFF7C8FC4FF40021C81000F0E3F8012033
:100BE00000F0DAF8022000F0EBF800F023FA10BD74
:100BF0000F48006840F001000D4908600846406851
:100C00000C4908400A494860084600680A490840FB
:100C1000074908600846006820F4802008600846FC
:100C2000406820F4FE0048604FF41F008860704761
:100C3000001002400000FFF8FFFFF6FE30B5002173
:100C40000022002400232D4D6D6805F00C0121B118
:100C5000042905D0082923D105E0294D056022E0AB
:100C6000274D05601FE0254D6D6805F47012234D7A
:100C70006D6805F48034022505EB92421CB9214DC4
:100C8000554305600BE01D4D6D6815F4003F03D022
:100C90001C4D5543056002E0194D5543056002E0C7
:100CA000174D056000BF00BF144D6D6805F0F001E1
:100CB0000909154D6B5C0568DD4045600F4D6D6899
:100CC00005F4E061090A104D6B5C4568DD40856004
:100CD0000A4D6D6805F46051C90A0B4D6B5C45689F
:100CE000DD40C560054D6D6805F44041890B074D39
:100CF0006B5CC568B5FBF3F5056130BD00100240C3
:100D000000127A0000093D00480000205800002031
:100D100010B501460022002300204A11012A02D109
:100D2000094C236806E0022A02D1074C236A01E03D
:100D3000054C636A01F01F02012494401C4201D05B
:100D4000012000E0002010BD001002401149096898
:100D500021F480310F4A11601146096821F4802185
:100D60001160B0F5803F03D0B0F5802F0ED106E0C2
:100D70000849096841F48031064A116007E00549D5
:100D8000096841F4A021034A116000E000BF00BFE0
:100D900070470000001002400149086670470000DB
:100DA0000000424202460020044B586820F47C10A8
:100DB00042EA01031843014B58607047001002409B
:100DC00001460020034A506820F0030008435060A9
:100DD000704700000010024038B500200090002449
:100DE000002500BF3120FFF793FF05460098401C07
:100DF00000900098B0F5A06F01D0002DF2D0312006
:100E0000FFF786FF08B1012400E00024204638BD2A
:100E100070B504460026002500BF14E010213C48B0
:100E2000FFF762FC6D00052000F044FC20213848EB
:100E3000FFF74FFC08B145F0010510213448FFF7DA
:100E400051FC701CC6B2182EE8DB012C04D0022C19
:100E50000ED0032C4ED133E010212D48FFF744FC77
:100E6000012000F027FC10212948FFF73BFC42E05D
:100E700010212748FFF738FC012000F01BFC10214F
:100E80002348FFF72FFC012000F014FC102120481C
:100E9000FFF72AFC012000F00DFC10211C48FFF791
:100EA00021FC012000F006FC10211948FFF71CFC72
:100EB000012000F0FFFB10211548FFF713FC1AE09A
:100EC00010211348FFF710FC012000F0F3FB102164
:100ED0000F48FFF707FC012000F0ECFB10210C4845
:100EE000FFF702FC012000F0E5FB10210848FFF7A6
:100EF000F9FB00E000BF00BFFFF736F944F62061C0
:100F000090FBF1F201FB12000249084470BD0000A1
:100F100000100140F89109002DE9F04106460F4606
:100F2000904600240DE03919C8B2FFF76FFA054664
:100F3000281206F81400012101EB44017554601CCD
:100F4000C4B24445EFDBBDE8F081704710B500F056
:100F500001F810BD0CB500200190009032480068E7
:100F600040F480303049086000BF2F48006800F42A
:100F7000003000900198401C0190009818B9019829
:100F8000B0F5A06FF1D12848006810F4003F02D0FE
:100F90000120009001E0002000900098012842D13B
:100FA0002248006840F010002049086008460068A8
:100FB00020F0030008600846006840F00200086066
:100FC0001948406818494860084640684860084623
:100FD000406840F4806048600846406820F47C1017
:100FE00048600846406840F4E810486008460068D9
:100FF00040F08070086000BF0B48006810F0007F70
:10100000FAD00948406820F00300074948600846C4
:10101000406840F00200486000BF0348406800F0AC
:101020000C000828F9D10CBD00100240002002403D
:101030007047000010B5002100200022214B5B68A2
:1010400003F00C0121B1042906D0082928D107E0BA
:101050001D4B1E4C236027E01B4B1C4C236023E0E0
:10106000184B5B6803F47010164B5B6803F4803216
:10107000022303EB904022B9154B4343134C2360EA
:101080000DE0104B5B6813F4003F04D0104B43435A
:101090000E4C236003E00C4B43430C4C236003E0F5
:1010A000094B0A4C236000BF00BF064B5B68C3F3CB
:1010B0000313084CE15C054B1B68CB40034C2360D9
:1010C00010BD00000010024000127A000000002055
:1010D00000093D000400002010B51348006840F0EE
:1010E00001001149086008464068104908400E494F
:1010F0004860084600680E4908400B4908600846E9
:10110000006820F4802008600846406820F4FE0053
:1011100048604FF41F008860FFF718FF4FF0006031
:101120000449086010BD0000001002400000FFF8F4
:10113000FFFFF6FE08ED00E010B50121054800F0C4
:1011400030F828B10121034800F01CF8FFF70CFB30
:1011500010BD00000004004010B50446012C09D168
:101160000121074800F011F801221146044800F05F
:1011700029F803E00021024800F007F810BD000044
:1011800000040040CA430282704721B1028842F045
:101190000102028004E002884FF6FE731A400280CA
:1011A000704730B50246002000230024158A05EA66
:1011B0000103958905EA010413B10CB1012000E097
:1011C000002030BD1AB183890B43838102E08389FB
:1011D0008B43838170470000002202881D4B984298
:1011E0000ED01D4B98420BD0B0F1804F08D01B4B56
:1011F000984205D01A4B984202D01A4B984204D11B
:101200004FF68F731A404B881A43174B984207D0FA
:10121000164B984204D04FF6FF431A40CB881A432E
:1012200002808B8883850B8803850A4B98420BD0FC
:10123000094B984208D00E4B984205D00D4B98426E
:1012400002D00D4B984201D10B7A03860123838291
:1012500070470000002C01400034014000040040B1
:1012600000080040000C0040001000400014004046
:1012700000400140004401400048014008B5012100
:101280001020FFF779FC1020ADF8000003208DF846
:10129000020010208DF8030069460A48FFF790F914
:1012A00010210848FFF71EFA2020ADF800000320A7
:1012B0008DF8020004208DF8030069460148FFF70D
:1012C0007FF908BD0010014010B540F225511148CA
:1012D00000F0CFF880B140F225510E4800F053F8ED
:1012E0000C4800F081F90C49087008460078FFF7B7
:1012F000FFF90220094908700821064800F0ACF8FF
:10130000012806D10821034800F034F8014800F014
:101310006BF910BD003801401400002016000020B9
:1013200010B540F22551104800F0A3F801280CD167
:1013300040F225510C4800F026F80B4800F054F913
:101340000A49087002200A4908700821064800F07E
:1013500083F8012806D10821034800F00BF8024861
:1013600000F042F910BD00000044004015000020CC
:101370001700002001F40072B2F5007F00D100BF19
:10138000CA430280704710B500220023A1F5106403
:101390006A3C00D100BF0A1201249440A3B2DC438E
:1013A000048010BD21B1828942F40052828104E0A0
:1013B00082894DF6FF731A408281704710B504464A
:1013C0002048844209D101218803FFF7E5FB002171
:1013D0004FF48040FFF7E0FB32E01B48844209D124
:1013E00001214804FFF7B8FB00214FF40030FFF75C
:1013F000B3FB25E01548844209D101218804FFF799
:10140000ABFB00214FF48020FFF7A6FB18E010484B
:10141000844209D10121C804FFF79EFB00214FF44B
:101420000020FFF799FB0BE00A48844208D1012114
:101430000805FFF791FB00214FF48010FFF78CFBAC
:1014400010BD00000038014000440040004800404A
:10145000004C00400050004002460020B1F5007FE3
:1014600000D100BF13880B4201D0012000E0002012
:10147000704770B502460024002300250020A1F526
:1014800010666A3E00D100BFC1F3421501F01F0390
:10149000012606FA03F3012D02D19689334006E0B6
:1014A000022D02D1168A334001E0968A33400C1295
:1014B000012606FA04F41688344013B10CB1012059
:1014C00000E0002070BDF0B5034600240026002592
:1014D0000020A1F510676A3F00D100BF1846C1F394
:1014E000421401F01F06012707FA06F5012C01D16D
:1014F0000C3004E0022C01D1103000E014301AB19D
:1015000007682F43076002E00768AF430760F0BD3C
:101510002DE9F04786B005460E460024A24600BFDE
:10152000A1460027B08900B100BF2F462C8A4CF697
:10153000FF700440F08804432C82AC894EF6F3100F
:101540000440B08831890843718908430443AC8161
:10155000AC8A4FF6FF400440B0890443AC8201A836
:10156000FFF76CFB1F48874202D1DDF810A001E0B5
:10157000DDF80CA0A88910F4004F08D00AEBCA00CF
:1015800000EB0A1031684900B0FBF1F807E00AEB04
:10159000CA0000EB0A1031688900B0FBF1F8642042
:1015A000B8FBF0F004012009642101FB1089A8892F
:1015B00010F4004F08D0322000EBC900B0FBF1F06E
:1015C00000F00700044308E0322000EB091064211A
:1015D000B0FBF1F000F00F0004432C8106B0BDE831
:1015E000F08700000038014001468888C0F30800F9
:1015F0007047C1F308028280704700BFFEE702E037
:1016000008C8121F08C1002AFAD17047704700208D
:1016100001E001C1121F002AFBD1704770B51449C7
:10162000886800F40001B1F5000F01D1411EC843E4
:1016300000BF104908600E49C86800F40001B1F508
:10164000000F01D1411EC84300BF0A490968451A6D
:101650002846FEF711FE044605490869FEF70CFE10
:1016600006462146FEF7C8FD0349086070BD00002C
:10167000A00000203C0000202C0000200948006849
:101680000949B0FBF1F0094908700846007800EB01
:101690004001C1EBC0104FF6FF7101EAC0000449E0
:1016A000088070470000002000127A001800002017
:1016B0001A00002000E0401E0028FCD17047000006
:1016C00008B501210420FFF757FA02210848FFF767
:1016D0000BF80220ADF8000010208DF80300032065
:1016E0008DF8020069460248FEF76AFF08BD000057
:1016F0000008014008B501211020FFF73DFA042041
:10170000ADF8000003208DF8020010208DF80300D2
:1017100069460448FEF754FF04210248FEF7E2FF41
:1017200008BD0000001001401FB501210220FFF795
:1017300003FA40F28F10ADF8080040F69F70ADF844
:1017400004000020ADF80A00ADF8060001A90B481E
:10175000FFF742FD1D208DF8000000208DF80100EC
:1017600003208DF8020001208DF803006846FFF782
:1017700089F900210148FFF708FD1FBD0004004062
:1017800010B500F0B5F800F009F800F05BF8FFF7CD
:10179000B1FF0120FFF7D2F810BD000000B587B0FF
:1017A000012144F20400FFF7E7F92448FFF706FEA1
:1017B0004FF40070ADF8180003208DF81A001820BF
:1017C0008DF81B0006A91E48FEF7FAFE4FF4806054
:1017D000ADF8180004208DF81B0006A91848FEF784
:1017E000EFFE4FF4165002900020ADF80C00ADF85B
:1017F0000E00ADF81000ADF814000C20ADF812008A
:1018000002A90E48FFF784FE25208DF8040003206E
:101810008DF805008DF8060001208DF8070001A85D
:10182000FFF730F9012240F225510448FFF74BFE43
:1018300001210248FFF7B6FD07B000BD00380140A6
:101840000008014000B587B001214804FFF774F992
:1018500001210420FFF790F92348FFF7AFFD042092
:10186000ADF8180003208DF81A0018208DF81B0021
:1018700006A91E48FEF7A4FE0820ADF818000420B3
:101880008DF81B0006A91948FEF79AFE4FF4165072
:1018900002900020ADF80C00ADF80E00ADF810007D
:1018A000ADF814000C20ADF8120002A90E48FFF7A5
:1018B0002FFE26208DF8040003208DF8050001205E
:1018C0008DF806008DF8070001A8FFF7DBF801226C
:1018D00040F225510448FFF7F6FD01210248FFF7C9
:1018E00061FD07B000BD0000004400400008014059
:1018F0000020024908700249087070471600002055
:1019000017000020FFF758F9FFF7DAFEFFF7B6FEE1
:10191000FFF7FCF80120FFF703F8FFF705FF00F0E1
:1019200059F8FFF7ABFCFFF72BFFFFF793F803E045
:10193000FEF7A0FFFFF714F8FAE7000070B50446C1
:101940000D46012D02D0022D18D10BE000BF8021E1
:101950000B48FFF781FD0128F9D121460848FFF720
:1019600048FE0BE000BF80210648FFF775FD012807
:10197000F9D121460348FFF73CFE00BF00BF70BD10
:10198000003801400044004070B502460C46FF2577
:10199000FF2309E012F8010B80EA03010648405CCE
:1019A00080EA05030548455C2000A4F10106F4B275
:1019B000F0D143EA052070BD0C1A00080C1B00088A
:1019C00010B50020FFF7C8FB10BD10B50120FFF7D0
:1019D000C3FB10BD00200B490860486088600A48BE
:1019E000C8604FF47A700861012088764FF4165071
:1019F00088820120C876002008770120C8820883E9
:101A000070470000A000002018107F0000C1814036
:101A100001C0804101C0804100C1814001C08041BE
:101A200000C1814000C1814001C0804101C08041AE
:101A300000C1814000C1814001C0804100C181409E
:101A400001C0804101C0804100C1814001C080418E
:101A500000C1814000C1814001C0804100C181407E
:101A600001C0804101C0804100C1814000C181406E
:101A700001C0804101C0804100C1814001C080415E
:101A800000C1814000C1814001C0804101C080414E
:101A900000C1814000C1814001C0804100C181403E
:101AA00001C0804101C0804100C1814000C181402E
:101AB00001C0804101C0804100C1814001C080411E
:101AC00000C1814000C1814001C0804100C181400E
:101AD00001C0804101C0804100C1814001C08041FE
:101AE00000C1814000C1814001C0804101C08041EE
:101AF00000C1814000C1814001C0804100C18140DE
:101B000001C0804101C0804100C1814000C0C101CD
:101B1000C30302C2C60607C705C5C404CC0C0DCD5D
:101B20000FCFCE0E0ACACB0BC90908C8D81819D9CD
:101B30001BDBDA1A1EDEDF1FDD1D1CDC14D4D515FD
:101B4000D71716D6D21213D311D1D010F03031F1ED
:101B500033F3F23236F6F737F53534F43CFCFD3D1D
:101B6000FF3F3EFEFA3A3BFB39F9F83828E8E9290D
:101B7000EB2B2AEAEE2E2FEF2DEDEC2CE42425E5BD
:101B800027E7E62622E2E323E12120E0A06061A12D
:101B900063A3A26266A6A767A56564A46CACAD6DDD
:101BA000AF6F6EAEAA6A6BAB69A9A86878B8B9794D
:101BB000BB7B7ABABE7E7FBF7DBDBC7CB47475B57D
:101BC00077B7B67672B2B373B17170B0509091516D
:101BD0009353529296565797559594549C5C5D9D9D
:101BE0005F9F9E5E5A9A9B5B99595898884849898D
:101BF0004B8B8A4A4E8E8F4F8D4D4C8C448485453D
:101C00008747468682424383418180402C1C0008DE
:101C10000000002060000000FE1500088C1C000879
:101C200060000020D80100000E16000800A24A043F
:101C3000000000000000000001020304060708097C
:101C40000000000000000000000000000000000094
:101C50000000000000000000000000000000000084
:101C60000000000000000000000000000000000074
:101C70000000000000000000010203040102030450
:0C1C800006070809020406080000000026
:0400000508000131BD
:00000001FF
